{
  "contractName": "PrisonersDilemma",
  "abi": [
    {
      "constant": true,
      "inputs": [],
      "name": "winner",
      "outputs": [
        {
          "name": "",
          "type": "address"
        }
      ],
      "payable": false,
      "stateMutability": "view",
      "type": "function"
    },
    {
      "constant": true,
      "inputs": [
        {
          "name": "",
          "type": "address"
        }
      ],
      "name": "players",
      "outputs": [
        {
          "name": "addr",
          "type": "address"
        },
        {
          "name": "choice",
          "type": "uint8"
        },
        {
          "name": "score",
          "type": "uint256"
        }
      ],
      "payable": false,
      "stateMutability": "view",
      "type": "function"
    },
    {
      "inputs": [
        {
          "name": "_player1",
          "type": "uint256[]"
        },
        {
          "name": "_player2",
          "type": "uint256[]"
        },
        {
          "name": "_scoringData",
          "type": "uint256[]"
        }
      ],
      "payable": false,
      "stateMutability": "nonpayable",
      "type": "constructor"
    },
    {
      "anonymous": false,
      "inputs": [
        {
          "indexed": false,
          "name": "player1Addr",
          "type": "address"
        },
        {
          "indexed": false,
          "name": "player2Addr",
          "type": "address"
        },
        {
          "indexed": false,
          "name": "scoringData",
          "type": "uint256[]"
        }
      ],
      "name": "ContractInitialized",
      "type": "event"
    },
    {
      "anonymous": false,
      "inputs": [
        {
          "indexed": false,
          "name": "_player",
          "type": "address"
        }
      ],
      "name": "PlayerSelectedChoice",
      "type": "event"
    },
    {
      "anonymous": false,
      "inputs": [],
      "name": "PlayersScoresTallied",
      "type": "event"
    },
    {
      "anonymous": false,
      "inputs": [
        {
          "indexed": false,
          "name": "_player",
          "type": "address"
        }
      ],
      "name": "AlertWinner",
      "type": "event"
    },
    {
      "anonymous": false,
      "inputs": [],
      "name": "ContractDeleted",
      "type": "event"
    },
    {
      "constant": false,
      "inputs": [
        {
          "name": "choice",
          "type": "uint8"
        }
      ],
      "name": "playerChoose",
      "outputs": [],
      "payable": false,
      "stateMutability": "nonpayable",
      "type": "function"
    },
    {
      "constant": true,
      "inputs": [
        {
          "name": "playerAddr",
          "type": "address"
        }
      ],
      "name": "getPlayerScore",
      "outputs": [
        {
          "name": "",
          "type": "uint256"
        }
      ],
      "payable": false,
      "stateMutability": "view",
      "type": "function"
    },
    {
      "constant": false,
      "inputs": [],
      "name": "endGame",
      "outputs": [],
      "payable": false,
      "stateMutability": "nonpayable",
      "type": "function"
    }
  ],
  "bytecode": "0x60806040526000600660006101000a81548173ffffffffffffffffffffffffffffffffffffffff021916908373ffffffffffffffffffffffffffffffffffffffff1602179055503480156200005357600080fd5b5060405162001d6738038062001d67833981018060405260608110156200007957600080fd5b8101908080516401000000008111156200009257600080fd5b82810190506020810184811115620000a957600080fd5b8151856020820283011164010000000082111715620000c757600080fd5b50509291906020018051640100000000811115620000e457600080fd5b82810190506020810184811115620000fb57600080fd5b81518560208202830111640100000000821117156200011957600080fd5b505092919060200180516401000000008111156200013657600080fd5b828101905060208101848111156200014d57600080fd5b81518560208202830111640100000000821117156200016b57600080fd5b505092919050505060008360008151811015156200018557fe5b9060200190602002015190506000836000815181101515620001a357fe5b9060200190602002015190506000856001815181101515620001c157fe5b906020019060200201516002811115620001d757fe5b90506000856001815181101515620001eb57fe5b9060200190602002015160028111156200020157fe5b905060008760028151811015156200021557fe5b90602001906020020151905060008760028151811015156200023357fe5b9060200190602002015190506060604051908101604052808773ffffffffffffffffffffffffffffffffffffffff1681526020018560028111156200027457fe5b815260200183815250600560008873ffffffffffffffffffffffffffffffffffffffff1673ffffffffffffffffffffffffffffffffffffffff16815260200190815260200160002060008201518160000160006101000a81548173ffffffffffffffffffffffffffffffffffffffff021916908373ffffffffffffffffffffffffffffffffffffffff16021790555060208201518160000160146101000a81548160ff021916908360028111156200032857fe5b02179055506040820151816001015590505060048690806001815401808255809150509060018203906000526020600020016000909192909190916101000a81548173ffffffffffffffffffffffffffffffffffffffff021916908373ffffffffffffffffffffffffffffffffffffffff160217905550506060604051908101604052808673ffffffffffffffffffffffffffffffffffffffff168152602001846002811115620003d557fe5b815260200182815250600560008773ffffffffffffffffffffffffffffffffffffffff1673ffffffffffffffffffffffffffffffffffffffff16815260200190815260200160002060008201518160000160006101000a81548173ffffffffffffffffffffffffffffffffffffffff021916908373ffffffffffffffffffffffffffffffffffffffff16021790555060208201518160000160146101000a81548160ff021916908360028111156200048957fe5b02179055506040820151816001015590505060048590806001815401808255809150509060018203906000526020600020016000909192909190916101000a81548173ffffffffffffffffffffffffffffffffffffffff021916908373ffffffffffffffffffffffffffffffffffffffff160217905550506080604051908101604052808860008151811015156200051d57fe5b9060200190602002015181526020018860018151811015156200053c57fe5b9060200190602002015181526020018860028151811015156200055b57fe5b9060200190602002015181526020018860038151811015156200057a57fe5b9060200190602002015181525060008082015181600001556020820151816001015560408201518160020155606082015181600301559050507fb1087d553501f875c9f15929c4c8cdd8733509fe5dcdb0f70084e18647bba424868689604051808473ffffffffffffffffffffffffffffffffffffffff1673ffffffffffffffffffffffffffffffffffffffff1681526020018373ffffffffffffffffffffffffffffffffffffffff1673ffffffffffffffffffffffffffffffffffffffff16815260200180602001828103825283818151815260200191508051906020019060200280838360005b838110156200068057808201518184015260208101905062000663565b5050505090500194505050505060405180910390a1620006ae620006d6640100000000026401000000009004565b620006c762000a99640100000000026401000000009004565b50505050505050505062000d9e565b60006005600060046000815481101515620006ed57fe5b9060005260206000200160009054906101000a900473ffffffffffffffffffffffffffffffffffffffff1673ffffffffffffffffffffffffffffffffffffffff1673ffffffffffffffffffffffffffffffffffffffff1681526020019081526020016000209050600060056000600460018154811015156200076b57fe5b9060005260206000200160009054906101000a900473ffffffffffffffffffffffffffffffffffffffff1673ffffffffffffffffffffffffffffffffffffffff1673ffffffffffffffffffffffffffffffffffffffff168152602001908152602001600020905060006002811115620007e057fe5b8260000160149054906101000a900460ff166002811115620007fe57fe5b1480620008345750600060028111156200081457fe5b8160000160149054906101000a900460ff1660028111156200083257fe5b145b156200084257505062000a97565b600160028111156200085057fe5b8260000160149054906101000a900460ff1660028111156200086e57fe5b148015620008a55750600160028111156200088557fe5b8160000160149054906101000a900460ff166002811115620008a357fe5b145b15620008df576000600201548160010160008282540192505081905550600060020154826001016000828254019250508190555062000a1a565b60016002811115620008ed57fe5b8260000160149054906101000a900460ff1660028111156200090b57fe5b1480156200094157506002808111156200092157fe5b8160000160149054906101000a900460ff1660028111156200093f57fe5b145b156200096457600060010154816001016000828254019250508190555062000a19565b6002808111156200097157fe5b8260000160149054906101000a900460ff1660028111156200098f57fe5b148015620009c6575060016002811115620009a657fe5b8160000160149054906101000a900460ff166002811115620009c457fe5b145b15620009e957600060010154826001016000828254019250508190555062000a18565b600060030154826001016000828254019250508190555060006003015481600101600082825401925050819055505b5b5b60008260000160146101000a81548160ff0219169083600281111562000a3c57fe5b021790555060008160000160146101000a81548160ff0219169083600281111562000a6357fe5b02179055507f35d155d6bad2cc589b6f0dddcff5193e0f37347c7de8e4eaef5ffde7420c47c560405160405180910390a150505b565b6000600560006004600081548110151562000ab057fe5b9060005260206000200160009054906101000a900473ffffffffffffffffffffffffffffffffffffffff1673ffffffffffffffffffffffffffffffffffffffff1673ffffffffffffffffffffffffffffffffffffffff16815260200190815260200160002090506000600560006004600181548110151562000b2e57fe5b9060005260206000200160009054906101000a900473ffffffffffffffffffffffffffffffffffffffff1673ffffffffffffffffffffffffffffffffffffffff1673ffffffffffffffffffffffffffffffffffffffff16815260200190815260200160002090506000800154826001015410801562000bb4575060008001548160010154105b1562000bc257505062000d9c565b600080015482600101541015801562000be357506000800154816001015410155b1562000c305730600660006101000a81548173ffffffffffffffffffffffffffffffffffffffff021916908373ffffffffffffffffffffffffffffffffffffffff16021790555062000d14565b6000800154826001015410151562000cad578160000160009054906101000a900473ffffffffffffffffffffffffffffffffffffffff16600660006101000a81548173ffffffffffffffffffffffffffffffffffffffff021916908373ffffffffffffffffffffffffffffffffffffffff16021790555062000d13565b8060000160009054906101000a900473ffffffffffffffffffffffffffffffffffffffff16600660006101000a81548173ffffffffffffffffffffffffffffffffffffffff021916908373ffffffffffffffffffffffffffffffffffffffff1602179055505b5b7fd2ba39aa1a96e5f7015c46fa31265ab243b8a1fe55084a7f6c715fb6bf68ce6f600660009054906101000a900473ffffffffffffffffffffffffffffffffffffffff16604051808273ffffffffffffffffffffffffffffffffffffffff1673ffffffffffffffffffffffffffffffffffffffff16815260200191505060405180910390a150505b565b610fb98062000dae6000396000f3fe60806040526004361061006d576000357c0100000000000000000000000000000000000000000000000000000000900463ffffffff1680636cbc2ded14610072578063dfbf53ae14610089578063e085c539146100e0578063e2eb41ff14610145578063f0bba3f8146101f2575b600080fd5b34801561007e57600080fd5b50610087610230565b005b34801561009557600080fd5b5061009e610276565b604051808273ffffffffffffffffffffffffffffffffffffffff1673ffffffffffffffffffffffffffffffffffffffff16815260200191505060405180910390f35b3480156100ec57600080fd5b5061012f6004803603602081101561010357600080fd5b81019080803573ffffffffffffffffffffffffffffffffffffffff16906020019092919050505061029c565b6040518082815260200191505060405180910390f35b34801561015157600080fd5b506101946004803603602081101561016857600080fd5b81019080803573ffffffffffffffffffffffffffffffffffffffff169060200190929190505050610414565b604051808473ffffffffffffffffffffffffffffffffffffffff1673ffffffffffffffffffffffffffffffffffffffff1681526020018360028111156101d657fe5b60ff168152602001828152602001935050505060405180910390f35b3480156101fe57600080fd5b5061022e6004803603602081101561021557600080fd5b81019080803560ff16906020019092919050505061046b565b005b7f41dbff2a3f1765d729d9e0651e4a45e813fb9a45fc4dd4f99ac3aa35bbab579260405160405180910390a1600073ffffffffffffffffffffffffffffffffffffffff16ff5b600660009054906101000a900473ffffffffffffffffffffffffffffffffffffffff1681565b60008073ffffffffffffffffffffffffffffffffffffffff16600560008473ffffffffffffffffffffffffffffffffffffffff1673ffffffffffffffffffffffffffffffffffffffff16815260200190815260200160002060000160009054906101000a900473ffffffffffffffffffffffffffffffffffffffff1673ffffffffffffffffffffffffffffffffffffffff16141515156103ca576040517f08c379a00000000000000000000000000000000000000000000000000000000081526004018080602001828103825260218152602001807f506c617965722061646472657373206973206e6f7420696e20636f6e7472616381526020017f740000000000000000000000000000000000000000000000000000000000000081525060400191505060405180910390fd5b600560008373ffffffffffffffffffffffffffffffffffffffff1673ffffffffffffffffffffffffffffffffffffffff168152602001908152602001600020600101549050919050565b60056020528060005260406000206000915090508060000160009054906101000a900473ffffffffffffffffffffffffffffffffffffffff16908060000160149054906101000a900460ff16908060010154905083565b600073ffffffffffffffffffffffffffffffffffffffff16600560003373ffffffffffffffffffffffffffffffffffffffff1673ffffffffffffffffffffffffffffffffffffffff16815260200190815260200160002060000160009054906101000a900473ffffffffffffffffffffffffffffffffffffffff1673ffffffffffffffffffffffffffffffffffffffff1614151515610598576040517f08c379a00000000000000000000000000000000000000000000000000000000081526004018080602001828103825260218152602001807f506c617965722061646472657373206973206e6f7420696e20636f6e7472616381526020017f740000000000000000000000000000000000000000000000000000000000000081525060400191505060405180910390fd5b600073ffffffffffffffffffffffffffffffffffffffff16600660009054906101000a900473ffffffffffffffffffffffffffffffffffffffff1673ffffffffffffffffffffffffffffffffffffffff16141515610684576040517f08c379a00000000000000000000000000000000000000000000000000000000081526004018080602001828103825260218152602001807f412077696e6e6572206f722074696520686173206265656e206465636c61726581526020017f640000000000000000000000000000000000000000000000000000000000000081525060400191505060405180910390fd5b6000600281111561069157fe5b81600281111561069d57fe5b14151515610739576040517f08c379a00000000000000000000000000000000000000000000000000000000081526004018080602001828103825260298152602001807f4e6f2073656c656374696f6e206d6164652c20706c617965722063686f73652081526020017f4e6f2043686f696365000000000000000000000000000000000000000000000081525060400191505060405180910390fd5b6000600281111561074657fe5b600560003373ffffffffffffffffffffffffffffffffffffffff1673ffffffffffffffffffffffffffffffffffffffff16815260200190815260200160002060000160149054906101000a900460ff1660028111156107a157fe5b141515610816576040517f08c379a000000000000000000000000000000000000000000000000000000000815260040180806020018281038252601c8152602001807f506c6179657220616c7265616479206d61646520612063686f6963650000000081525060200191505060405180910390fd5b80600560003373ffffffffffffffffffffffffffffffffffffffff1673ffffffffffffffffffffffffffffffffffffffff16815260200190815260200160002060000160146101000a81548160ff0219169083600281111561087457fe5b02179055507f7a61c8458b56328e51bc88fe6f8b5d6602c941a984601012903a18d0af0b6af033604051808273ffffffffffffffffffffffffffffffffffffffff1673ffffffffffffffffffffffffffffffffffffffff16815260200191505060405180910390a16108e46108ef565b6108ec610c92565b50565b6000600560006004600081548110151561090557fe5b9060005260206000200160009054906101000a900473ffffffffffffffffffffffffffffffffffffffff1673ffffffffffffffffffffffffffffffffffffffff1673ffffffffffffffffffffffffffffffffffffffff16815260200190815260200160002090506000600560006004600181548110151561098257fe5b9060005260206000200160009054906101000a900473ffffffffffffffffffffffffffffffffffffffff1673ffffffffffffffffffffffffffffffffffffffff1673ffffffffffffffffffffffffffffffffffffffff1681526020019081526020016000209050600060028111156109f657fe5b8260000160149054906101000a900460ff166002811115610a1357fe5b1480610a46575060006002811115610a2757fe5b8160000160149054906101000a900460ff166002811115610a4457fe5b145b15610a52575050610c90565b60016002811115610a5f57fe5b8260000160149054906101000a900460ff166002811115610a7c57fe5b148015610ab0575060016002811115610a9157fe5b8160000160149054906101000a900460ff166002811115610aae57fe5b145b15610ae85760006002015481600101600082825401925050819055506000600201548260010160008282540192505081905550610c15565b60016002811115610af557fe5b8260000160149054906101000a900460ff166002811115610b1257fe5b148015610b455750600280811115610b2657fe5b8160000160149054906101000a900460ff166002811115610b4357fe5b145b15610b66576000600101548160010160008282540192505081905550610c14565b600280811115610b7257fe5b8260000160149054906101000a900460ff166002811115610b8f57fe5b148015610bc3575060016002811115610ba457fe5b8160000160149054906101000a900460ff166002811115610bc157fe5b145b15610be4576000600101548260010160008282540192505081905550610c13565b600060030154826001016000828254019250508190555060006003015481600101600082825401925050819055505b5b5b60008260000160146101000a81548160ff02191690836002811115610c3657fe5b021790555060008160000160146101000a81548160ff02191690836002811115610c5c57fe5b02179055507f35d155d6bad2cc589b6f0dddcff5193e0f37347c7de8e4eaef5ffde7420c47c560405160405180910390a150505b565b60006005600060046000815481101515610ca857fe5b9060005260206000200160009054906101000a900473ffffffffffffffffffffffffffffffffffffffff1673ffffffffffffffffffffffffffffffffffffffff1673ffffffffffffffffffffffffffffffffffffffff168152602001908152602001600020905060006005600060046001815481101515610d2557fe5b9060005260206000200160009054906101000a900473ffffffffffffffffffffffffffffffffffffffff1673ffffffffffffffffffffffffffffffffffffffff1673ffffffffffffffffffffffffffffffffffffffff168152602001908152602001600020905060008001548260010154108015610daa575060008001548160010154105b15610db6575050610f8b565b6000800154826001015410158015610dd657506000800154816001015410155b15610e215730600660006101000a81548173ffffffffffffffffffffffffffffffffffffffff021916908373ffffffffffffffffffffffffffffffffffffffff160217905550610f03565b60008001548260010154101515610e9c578160000160009054906101000a900473ffffffffffffffffffffffffffffffffffffffff16600660006101000a81548173ffffffffffffffffffffffffffffffffffffffff021916908373ffffffffffffffffffffffffffffffffffffffff160217905550610f02565b8060000160009054906101000a900473ffffffffffffffffffffffffffffffffffffffff16600660006101000a81548173ffffffffffffffffffffffffffffffffffffffff021916908373ffffffffffffffffffffffffffffffffffffffff1602179055505b5b7fd2ba39aa1a96e5f7015c46fa31265ab243b8a1fe55084a7f6c715fb6bf68ce6f600660009054906101000a900473ffffffffffffffffffffffffffffffffffffffff16604051808273ffffffffffffffffffffffffffffffffffffffff1673ffffffffffffffffffffffffffffffffffffffff16815260200191505060405180910390a150505b56fea165627a7a72305820fdb58bd9e5a21de11e9c1f3d55e6792437b758dfe793edeb4e7d15f0fbd804f70029",
  "source": "pragma solidity ^0.5.0;\n\n/** @title Prisoners Dilemma **/\ncontract PrisonersDilemma {\n\n    enum ActionChoices { NoChoice, Share, Take }\n\n    struct Player {\n        address addr;\n        ActionChoices choice;\n        uint score;\n    }\n\n    struct ScoringData {\n        uint winning_score;\n        uint greedy_points;\n        uint mutual_points;\n        uint mutual_greedy_points;\n    }\n\n    //State Variables\n    ScoringData private scoringData;\n    address[] private playerList;\n    mapping (address => Player) public players;\n    address public winner = address(0); //empty address\n\n    //Events\n    event ContractInitialized(address player1Addr, address player2Addr, uint[] scoringData);\n    event PlayerSelectedChoice(address _player);\n    event PlayersScoresTallied();\n    event AlertWinner(address _player);\n    event ContractDeleted();\n\n    /** @dev Instantiates the Prisoners Dilemma\n      * @param _player1 An array of Player 1 data [address, initialChoice, initialScore]\n      * @param _player2 An array of Player 2 data [address, initialChoice, initialScore]\n      * @param _scoringData An array of scoring data that the game is going to follow \n      * [winning score, greedy score, mutual score, mutual greedy score]\n      */\n    constructor(uint[] memory _player1, uint[] memory _player2, uint[] memory _scoringData) public {\n\n        address player1Addr = address(_player1[0]);\n        address player2Addr = address(_player2[0]);\n\n        ActionChoices player1Choice = ActionChoices(_player1[1]);\n        ActionChoices player2Choice = ActionChoices(_player2[1]);\n\n        uint player1Score = _player1[2];\n        uint player2Score = _player2[2];\n\n        players[player1Addr] = Player(player1Addr, player1Choice, player1Score);\n        playerList.push(player1Addr);\n        \n        players[player2Addr] = Player(player2Addr, player2Choice, player2Score);\n        playerList.push(player2Addr);\n\n        scoringData = ScoringData(_scoringData[0], _scoringData[1], _scoringData[2], _scoringData[3]);\n\n        emit ContractInitialized(player1Addr, player2Addr, _scoringData);\n\n        //provided if we pass in player state we should tally and check for winner\n        //this will add gas cost\n        tallyPlayerScores();\n        checkForWinner();\n    }\n\n    /** @dev Function for a player to select a choice\n      * @param choice the players choice that needs to be saved\n      */\n    function playerChoose(ActionChoices choice) public { \n\n        //Require player is within the players mapping\n        //0 is default value. We aren't going to allow default values\n        require(players[msg.sender].addr != address(0), \"Player address is not in contract\");\n\n        //Game stops once a winner has been declared\n        require(winner == address(0), \"A winner or tie has been declared\");\n\n        //Require player to not pass 'NoChoice'\n        require(choice != ActionChoices.NoChoice, \"No selection made, player chose No Choice\");\n\n        //Update player choice iff the existing state is ActionChoices.NoChoice\n        //Otherwise the player has already made a choice\n        require(players[msg.sender].choice == ActionChoices.NoChoice, \"Player already made a choice\");\n      \n        //Set Player Choice \n        players[msg.sender].choice = choice;\n        emit PlayerSelectedChoice(msg.sender);\n\n        tallyPlayerScores();\n        checkForWinner();\n    }\n\n    /** @dev Tallies the player's scores given their choices */\n    function tallyPlayerScores() private {\n        //get players\n        Player storage player1 = players[playerList[0]];\n        Player storage player2 = players[playerList[1]];\n\n        //check either player hasn't made a choice and exit\n        if ((player1.choice == ActionChoices.NoChoice) || (player2.choice == ActionChoices.NoChoice)) {\n            //I don't require here because require would refund gas\n            return;\n        }\n\n        //tally player scores\n        if(player1.choice == ActionChoices.Share && player2.choice == ActionChoices.Share){\n            player2.score += scoringData.mutual_points;\n            player1.score += scoringData.mutual_points;\n        } else if (player1.choice == ActionChoices.Share && player2.choice == ActionChoices.Take) {\n            player2.score += scoringData.greedy_points;\n        } else if (player1.choice == ActionChoices.Take && player2.choice == ActionChoices.Share) {\n            player1.score += scoringData.greedy_points;\n        } else {\n            //last choice is take/take\n            player1.score += scoringData.mutual_greedy_points;\n            player2.score += scoringData.mutual_greedy_points;\n        }\n\n        //reset player choices for next round\n        player1.choice = ActionChoices.NoChoice;\n        player2.choice = ActionChoices.NoChoice;\n\n        emit PlayersScoresTallied();\n    }\n\n    /** @dev Method checks for a winner given the points of the users */\n    function checkForWinner() private {\n        //get players\n        Player storage player1 = players[playerList[0]];\n        Player storage player2 = players[playerList[1]];\n        \n        if (player1.score < scoringData.winning_score && player2.score < scoringData.winning_score) {\n            //no winner keep playing\n            return;\n        } else if(player1.score >= scoringData.winning_score && player2.score >= scoringData.winning_score) {\n            //there is no winner, set the winner as the contract\n            winner = address(this);\n        } else if (player1.score >= scoringData.winning_score) {\n            winner = player1.addr;\n        } else {\n            winner = player2.addr;\n        } \n        emit AlertWinner(winner);\n    }\n\n    /** @dev Function to get a player's scores\n      * @param playerAddr the players address we want to get a score for\n      * @return the player's score\n      */\n    function getPlayerScore(address playerAddr) public view returns (uint){\n\n        //require the player is in the map in order to look them up\n        require(players[playerAddr].addr != address(0), \"Player address is not in contract\");\n        return players[playerAddr].score;\n    }\n\n    function endGame() public {\n        emit ContractDeleted();\n        selfdestruct(address(0));\n    }\n}\n",
  "sourcePath": "/Users/ejwessel/Dev/PrisonersDilemma/contracts/PrisonersDilemma.sol",
  "compiler": {
    "name": "solc",
    "version": "0.5.0+commit.1d4f565a.Emscripten.clang"
  },
  "schemaVersion": "3.0.2",
  "updatedAt": "2019-03-02T21:20:51.434Z",
  "devdoc": {
    "methods": {
      "constructor": {
        "details": "Instantiates the Prisoners Dilemma",
        "params": {
          "_player1": "An array of Player 1 data [address, initialChoice, initialScore]",
          "_player2": "An array of Player 2 data [address, initialChoice, initialScore]",
          "_scoringData": "An array of scoring data that the game is going to follow  [winning score, greedy score, mutual score, mutual greedy score]"
        }
      },
      "getPlayerScore(address)": {
        "details": "Function to get a player's scores",
        "params": {
          "playerAddr": "the players address we want to get a score for"
        },
        "return": "the player's score"
      },
      "playerChoose(uint8)": {
        "details": "Function for a player to select a choice",
        "params": {
          "choice": "the players choice that needs to be saved"
        }
      }
    },
    "title": "Prisoners Dilemma *"
  },
  "userdoc": {
    "methods": {}
  }
}